S01000006578616D706C65332E73726563F5
S11300000C942A000C943C000C943C000C943C008E
S11300100C943C000C943C000C943C000C943C006C
S11300200C943C000C943C000C943C000C943C005C
S11300300C943C000C943C000C943C000C943C004C
S11300400C943C000C943C000C943C000C943C003C
S11300500C943C0011241FBECFE5D4E0DEBFCDBF1D
S113006020E0A0E6B0E001C01D92A436B207E1F79B
S11300700E943E000C945D000C9400008FEF87BB3F
S113008011BA1ABA30B3432F4F704093600090B343
S1130090392F32953F703093630099B3292F2F7015
S11300A02093620099B3892F82958F7080936100A9
S11100B0340F230F820F88BBE5CFF894FFCFE7
S9030000FC
