:100000000C942A000C943C000C943C000C943C0092
:100010000C943C000C943C000C943C000C943C0070
:100020000C943C000C943C000C943C000C943C0060
:100030000C943C000C943C000C943C000C943C0050
:100040000C943C000C943C000C943C000C943C0040
:100050000C943C0011241FBECFE5D4E0DEBFCDBF21
:1000600020E0A0E6B0E001C01D92A136B207E1F7A2
:100070000E943E000C9457000C9400008FEF87BB49
:100080001ABA81E080936000C89B0DC0C899FECF6A
:1000900080916000803821F481E08093600003C08B
:1000A000880F809360008091600088BBEDCFF8944A
:0200B000FFCF80
:00000001FF
