S0120000657832207769746820432E73726563C4
S11300000C942A000C943C000C943C000C943C008E
S11300100C943C000C943C000C943C000C943C006C
S11300200C943C000C943C000C943C000C943C005C
S11300300C943C000C943C000C943C000C943C004C
S11300400C943C000C943C000C943C000C943C003C
S11300500C943C0011241FBECFE5D4E0DEBFCDBF1D
S113006020E0A0E6B0E001C01D92A836B207E1F797
S11300700E943E000C9472000C9400008FEF8ABB27
S113008017BA49B3542F51705093610099B391FB3F
S1130090442740F94093630099B392FB992790F960
S11300A09093650029B323FB882780F9809360002F
S11300B0352F3423292F20952323392F3823232B1D
S11300C02095217020936400452B982B842F89233D
S11300D0880F80936200822B8093670088BB109204
S10B00E06600CFCFF894FFCFB6
S9030000FC
