S00B00006578332E7372656309
S11300000C942A000C943C000C943C000C943C008E
S11300100C943C000C943C000C943C000C943C006C
S11300200C943C000C943C000C943C000C943C005C
S11300300C943C000C943C000C943C000C943C004C
S11300400C943C000C943C000C943C000C943C003C
S11300500C943C0011241FBECFE5D4E0DEBFCDBF1D
S113006020E0A0E6B0E001C01D92A136B207E1F79E
S11300700E943E000C9475000C9400008FEF8ABB24
S113008014BA81E0809360008BBB989B0DC0989953
S1130090FECF80916000803821F481E0809360007D
S11300A003C0880F80936000999B0DC09999FECF7F
S11300B080916000813021F480E88093600003C067
S11300C08695809360009A9B05C09A99FECF80E83C
S11300D0809360009B9B05C09B99FECF81E0809339
S11100E06000809160008BBBD0CFF894FFCFFE
S9030000FC
