S0120000657832207769746820432E73726563C4
S11300000C942A000C943C000C943C000C943C008E
S11300100C943C000C943C000C943C000C943C006C
S11300200C943C000C943C000C943C000C943C005C
S11300300C943C000C943C000C943C000C943C004C
S11300400C943C000C943C000C943C000C943C003C
S11300500C943C0011241FBECFE5D4E0DEBFCDBF1D
S113006020E0A0E6B0E001C01D92A836B207E1F797
S11300700E943E000C9476000C9400001ABA8FEF94
S113008087BB39B3532F51705093610099B3392F03
S113009032703093630099B394709093650029B3E0
S11300A0369530936300969596959093650023FB5F
S11300B0882780F980936000452F4323292F2095BA
S11300C02423492F4823242B209521702093640056
S11300D0352B982B832F8923880F80936200822BE2
S11300E08093660088BB10926700CBCFF894FFCF53
S9030000FC
